:100000000C942A000C9434000C9434000C943400AA
:100010000C9434000C9434000C9434000C94340090
:100020000C9434000C9434000C9434000C94340080
:100030000C9434000C9434000C9434000C94340070
:100040000C9434000C9434000C9434000C94340060
:100050000C94340011241FBECFE5D8E0DEBFCDBF25
:100060000E9436000C9444000C9400008FEF8ABB71
:1000700081E08BBB2FEF37EA91E621503040904072
:0C008000E1F700C00000F5CFF894FFCFBE
:00000001FF
